{
  "contracts/l1.sol": {
    "l1": {
      "abi": [
        {
          "inputs": [
            {
              "internalType": "contract IStarknetCore",
              "name": "starknetCore_",
              "type": "address"
            }
          ],
          "stateMutability": "nonpayable",
          "type": "constructor"
        },
        {
          "inputs": [
            {
              "internalType": "uint256",
              "name": "l2ContractAddress",
              "type": "uint256"
            },
            {
              "internalType": "uint256",
              "name": "user",
              "type": "uint256"
            },
            {
              "internalType": "uint256",
              "name": "amount",
              "type": "uint256"
            }
          ],
          "name": "deposit",
          "outputs": [],
          "stateMutability": "nonpayable",
          "type": "function"
        },
        {
          "inputs": [
            {
              "internalType": "uint256",
              "name": "",
              "type": "uint256"
            }
          ],
          "name": "userBalances",
          "outputs": [
            {
              "internalType": "uint256",
              "name": "",
              "type": "uint256"
            }
          ],
          "stateMutability": "view",
          "type": "function"
        },
        {
          "inputs": [
            {
              "internalType": "uint256",
              "name": "l2ContractAddress",
              "type": "uint256"
            },
            {
              "internalType": "uint256",
              "name": "user",
              "type": "uint256"
            },
            {
              "internalType": "uint256",
              "name": "amount",
              "type": "uint256"
            }
          ],
          "name": "withdraw",
          "outputs": [],
          "stateMutability": "nonpayable",
          "type": "function"
        }
      ],
      "evm": {
        "bytecode": {
          "linkReferences": {},
          "object": "608060405234801561001057600080fd5b50604051610a60380380610a60833981810160405281019061003291906100ed565b806000806101000a81548173ffffffffffffffffffffffffffffffffffffffff021916908373ffffffffffffffffffffffffffffffffffffffff1602179055505061011a565b600080fd5b600073ffffffffffffffffffffffffffffffffffffffff82169050919050565b60006100a88261007d565b9050919050565b60006100ba8261009d565b9050919050565b6100ca816100af565b81146100d557600080fd5b50565b6000815190506100e7816100c1565b92915050565b60006020828403121561010357610102610078565b5b6000610111848285016100d8565b91505092915050565b610937806101296000396000f3fe608060405234801561001057600080fd5b50600436106100405760003560e01c8062aeef8a14610045578063051475dd14610061578063a41fe49f14610091575b600080fd5b61005f600480360381019061005a91906104a2565b6100ad565b005b61007b600480360381019061007691906104f5565b6102ce565b6040516100889190610531565b60405180910390f35b6100ab60048036038101906100a691906104a2565b6102e6565b005b6801000000000000000081106100f8576040517f08c379a00000000000000000000000000000000000000000000000000000000081526004016100ef906105a9565b60405180910390fd5b600160008381526020019081526020016000205481111561014e576040517f08c379a00000000000000000000000000000000000000000000000000000000081526004016101459061063b565b60405180910390fd5b80600160008481526020019081526020016000206000828254610171919061068a565b925050819055506000600267ffffffffffffffff811115610195576101946106be565b5b6040519080825280602002602001820160405280156101c35781602001602082028036833780820191505090505b50905082816000815181106101db576101da6106ed565b5b60200260200101818152505081816001815181106101fc576101fb6106ed565b5b60200260200101818152505060008054906101000a900473ffffffffffffffffffffffffffffffffffffffff1673ffffffffffffffffffffffffffffffffffffffff16633e3aa6c5857ec73f681176fc7b3f9693986fd7b14581e8d540519e27400e88b8713932be01846040518463ffffffff1660e01b8152600401610284939291906107da565b6020604051808303816000875af11580156102a3573d6000803e3d6000fd5b505050506040513d601f19601f820116820180604052508101906102c7919061084e565b5050505050565b60016020528060005260406000206000915090505481565b6000600367ffffffffffffffff811115610303576103026106be565b5b6040519080825280602002602001820160405280156103315781602001602082028036833780820191505090505b50905060008160008151811061034a576103496106ed565b5b602002602001018181525050828160018151811061036b5761036a6106ed565b5b602002602001018181525050818160028151811061038c5761038b6106ed565b5b60200260200101818152505060008054906101000a900473ffffffffffffffffffffffffffffffffffffffff1673ffffffffffffffffffffffffffffffffffffffff16632c9dd5c085836040518363ffffffff1660e01b81526004016103f392919061087b565b6020604051808303816000875af1158015610412573d6000803e3d6000fd5b505050506040513d601f19601f82011682018060405250810190610436919061084e565b508160016000858152602001908152602001600020600082825461045a91906108ab565b9250508190555050505050565b600080fd5b6000819050919050565b61047f8161046c565b811461048a57600080fd5b50565b60008135905061049c81610476565b92915050565b6000806000606084860312156104bb576104ba610467565b5b60006104c98682870161048d565b93505060206104da8682870161048d565b92505060406104eb8682870161048d565b9150509250925092565b60006020828403121561050b5761050a610467565b5b60006105198482850161048d565b91505092915050565b61052b8161046c565b82525050565b60006020820190506105466000830184610522565b92915050565b600082825260208201905092915050565b7f496e76616c696420616d6f756e742e0000000000000000000000000000000000600082015250565b6000610593600f8361054c565b915061059e8261055d565b602082019050919050565b600060208201905081810360008301526105c281610586565b9050919050565b7f546865207573657227732062616c616e6365206973206e6f74206c617267652060008201527f656e6f7567682e00000000000000000000000000000000000000000000000000602082015250565b600061062560278361054c565b9150610630826105c9565b604082019050919050565b6000602082019050818103600083015261065481610618565b9050919050565b7f4e487b7100000000000000000000000000000000000000000000000000000000600052601160045260246000fd5b60006106958261046c565b91506106a08361046c565b9250828210156106b3576106b261065b565b5b828203905092915050565b7f4e487b7100000000000000000000000000000000000000000000000000000000600052604160045260246000fd5b7f4e487b7100000000000000000000000000000000000000000000000000000000600052603260045260246000fd5b600081519050919050565b600082825260208201905092915050565b6000819050602082019050919050565b6107518161046c565b82525050565b60006107638383610748565b60208301905092915050565b6000602082019050919050565b60006107878261071c565b6107918185610727565b935061079c83610738565b8060005b838110156107cd5781516107b48882610757565b97506107bf8361076f565b9250506001810190506107a0565b5085935050505092915050565b60006060820190506107ef6000830186610522565b6107fc6020830185610522565b818103604083015261080e818461077c565b9050949350505050565b6000819050919050565b61082b81610818565b811461083657600080fd5b50565b60008151905061084881610822565b92915050565b60006020828403121561086457610863610467565b5b600061087284828501610839565b91505092915050565b60006040820190506108906000830185610522565b81810360208301526108a2818461077c565b90509392505050565b60006108b68261046c565b91506108c18361046c565b9250827fffffffffffffffffffffffffffffffffffffffffffffffffffffffffffffffff038211156108f6576108f561065b565b5b82820190509291505056fea264697066735822122082dfdc2c032617d4ade067d48c18f5c95d3f46fcdc4d3788728c71d09c6315fc64736f6c634300080a0033",
          "opcodes": "PUSH1 0x80 PUSH1 0x40 MSTORE CALLVALUE DUP1 ISZERO PUSH2 0x10 JUMPI PUSH1 0x0 DUP1 REVERT JUMPDEST POP PUSH1 0x40 MLOAD PUSH2 0xA60 CODESIZE SUB DUP1 PUSH2 0xA60 DUP4 CODECOPY DUP2 DUP2 ADD PUSH1 0x40 MSTORE DUP2 ADD SWAP1 PUSH2 0x32 SWAP2 SWAP1 PUSH2 0xED JUMP JUMPDEST DUP1 PUSH1 0x0 DUP1 PUSH2 0x100 EXP DUP2 SLOAD DUP2 PUSH20 0xFFFFFFFFFFFFFFFFFFFFFFFFFFFFFFFFFFFFFFFF MUL NOT AND SWAP1 DUP4 PUSH20 0xFFFFFFFFFFFFFFFFFFFFFFFFFFFFFFFFFFFFFFFF AND MUL OR SWAP1 SSTORE POP POP PUSH2 0x11A JUMP JUMPDEST PUSH1 0x0 DUP1 REVERT JUMPDEST PUSH1 0x0 PUSH20 0xFFFFFFFFFFFFFFFFFFFFFFFFFFFFFFFFFFFFFFFF DUP3 AND SWAP1 POP SWAP2 SWAP1 POP JUMP JUMPDEST PUSH1 0x0 PUSH2 0xA8 DUP3 PUSH2 0x7D JUMP JUMPDEST SWAP1 POP SWAP2 SWAP1 POP JUMP JUMPDEST PUSH1 0x0 PUSH2 0xBA DUP3 PUSH2 0x9D JUMP JUMPDEST SWAP1 POP SWAP2 SWAP1 POP JUMP JUMPDEST PUSH2 0xCA DUP2 PUSH2 0xAF JUMP JUMPDEST DUP2 EQ PUSH2 0xD5 JUMPI PUSH1 0x0 DUP1 REVERT JUMPDEST POP JUMP JUMPDEST PUSH1 0x0 DUP2 MLOAD SWAP1 POP PUSH2 0xE7 DUP2 PUSH2 0xC1 JUMP JUMPDEST SWAP3 SWAP2 POP POP JUMP JUMPDEST PUSH1 0x0 PUSH1 0x20 DUP3 DUP5 SUB SLT ISZERO PUSH2 0x103 JUMPI PUSH2 0x102 PUSH2 0x78 JUMP JUMPDEST JUMPDEST PUSH1 0x0 PUSH2 0x111 DUP5 DUP3 DUP6 ADD PUSH2 0xD8 JUMP JUMPDEST SWAP2 POP POP SWAP3 SWAP2 POP POP JUMP JUMPDEST PUSH2 0x937 DUP1 PUSH2 0x129 PUSH1 0x0 CODECOPY PUSH1 0x0 RETURN INVALID PUSH1 0x80 PUSH1 0x40 MSTORE CALLVALUE DUP1 ISZERO PUSH2 0x10 JUMPI PUSH1 0x0 DUP1 REVERT JUMPDEST POP PUSH1 0x4 CALLDATASIZE LT PUSH2 0x40 JUMPI PUSH1 0x0 CALLDATALOAD PUSH1 0xE0 SHR DUP1 PUSH3 0xAEEF8A EQ PUSH2 0x45 JUMPI DUP1 PUSH4 0x51475DD EQ PUSH2 0x61 JUMPI DUP1 PUSH4 0xA41FE49F EQ PUSH2 0x91 JUMPI JUMPDEST PUSH1 0x0 DUP1 REVERT JUMPDEST PUSH2 0x5F PUSH1 0x4 DUP1 CALLDATASIZE SUB DUP2 ADD SWAP1 PUSH2 0x5A SWAP2 SWAP1 PUSH2 0x4A2 JUMP JUMPDEST PUSH2 0xAD JUMP JUMPDEST STOP JUMPDEST PUSH2 0x7B PUSH1 0x4 DUP1 CALLDATASIZE SUB DUP2 ADD SWAP1 PUSH2 0x76 SWAP2 SWAP1 PUSH2 0x4F5 JUMP JUMPDEST PUSH2 0x2CE JUMP JUMPDEST PUSH1 0x40 MLOAD PUSH2 0x88 SWAP2 SWAP1 PUSH2 0x531 JUMP JUMPDEST PUSH1 0x40 MLOAD DUP1 SWAP2 SUB SWAP1 RETURN JUMPDEST PUSH2 0xAB PUSH1 0x4 DUP1 CALLDATASIZE SUB DUP2 ADD SWAP1 PUSH2 0xA6 SWAP2 SWAP1 PUSH2 0x4A2 JUMP JUMPDEST PUSH2 0x2E6 JUMP JUMPDEST STOP JUMPDEST PUSH9 0x10000000000000000 DUP2 LT PUSH2 0xF8 JUMPI PUSH1 0x40 MLOAD PUSH32 0x8C379A000000000000000000000000000000000000000000000000000000000 DUP2 MSTORE PUSH1 0x4 ADD PUSH2 0xEF SWAP1 PUSH2 0x5A9 JUMP JUMPDEST PUSH1 0x40 MLOAD DUP1 SWAP2 SUB SWAP1 REVERT JUMPDEST PUSH1 0x1 PUSH1 0x0 DUP4 DUP2 MSTORE PUSH1 0x20 ADD SWAP1 DUP2 MSTORE PUSH1 0x20 ADD PUSH1 0x0 KECCAK256 SLOAD DUP2 GT ISZERO PUSH2 0x14E JUMPI PUSH1 0x40 MLOAD PUSH32 0x8C379A000000000000000000000000000000000000000000000000000000000 DUP2 MSTORE PUSH1 0x4 ADD PUSH2 0x145 SWAP1 PUSH2 0x63B JUMP JUMPDEST PUSH1 0x40 MLOAD DUP1 SWAP2 SUB SWAP1 REVERT JUMPDEST DUP1 PUSH1 0x1 PUSH1 0x0 DUP5 DUP2 MSTORE PUSH1 0x20 ADD SWAP1 DUP2 MSTORE PUSH1 0x20 ADD PUSH1 0x0 KECCAK256 PUSH1 0x0 DUP3 DUP3 SLOAD PUSH2 0x171 SWAP2 SWAP1 PUSH2 0x68A JUMP JUMPDEST SWAP3 POP POP DUP2 SWAP1 SSTORE POP PUSH1 0x0 PUSH1 0x2 PUSH8 0xFFFFFFFFFFFFFFFF DUP2 GT ISZERO PUSH2 0x195 JUMPI PUSH2 0x194 PUSH2 0x6BE JUMP JUMPDEST JUMPDEST PUSH1 0x40 MLOAD SWAP1 DUP1 DUP3 MSTORE DUP1 PUSH1 0x20 MUL PUSH1 0x20 ADD DUP3 ADD PUSH1 0x40 MSTORE DUP1 ISZERO PUSH2 0x1C3 JUMPI DUP2 PUSH1 0x20 ADD PUSH1 0x20 DUP3 MUL DUP1 CALLDATASIZE DUP4 CALLDATACOPY DUP1 DUP3 ADD SWAP2 POP POP SWAP1 POP JUMPDEST POP SWAP1 POP DUP3 DUP2 PUSH1 0x0 DUP2 MLOAD DUP2 LT PUSH2 0x1DB JUMPI PUSH2 0x1DA PUSH2 0x6ED JUMP JUMPDEST JUMPDEST PUSH1 0x20 MUL PUSH1 0x20 ADD ADD DUP2 DUP2 MSTORE POP POP DUP2 DUP2 PUSH1 0x1 DUP2 MLOAD DUP2 LT PUSH2 0x1FC JUMPI PUSH2 0x1FB PUSH2 0x6ED JUMP JUMPDEST JUMPDEST PUSH1 0x20 MUL PUSH1 0x20 ADD ADD DUP2 DUP2 MSTORE POP POP PUSH1 0x0 DUP1 SLOAD SWAP1 PUSH2 0x100 EXP SWAP1 DIV PUSH20 0xFFFFFFFFFFFFFFFFFFFFFFFFFFFFFFFFFFFFFFFF AND PUSH20 0xFFFFFFFFFFFFFFFFFFFFFFFFFFFFFFFFFFFFFFFF AND PUSH4 0x3E3AA6C5 DUP6 PUSH31 0xC73F681176FC7B3F9693986FD7B14581E8D540519E27400E88B8713932BE01 DUP5 PUSH1 0x40 MLOAD DUP5 PUSH4 0xFFFFFFFF AND PUSH1 0xE0 SHL DUP2 MSTORE PUSH1 0x4 ADD PUSH2 0x284 SWAP4 SWAP3 SWAP2 SWAP1 PUSH2 0x7DA JUMP JUMPDEST PUSH1 0x20 PUSH1 0x40 MLOAD DUP1 DUP4 SUB DUP2 PUSH1 0x0 DUP8 GAS CALL ISZERO DUP1 ISZERO PUSH2 0x2A3 JUMPI RETURNDATASIZE PUSH1 0x0 DUP1 RETURNDATACOPY RETURNDATASIZE PUSH1 0x0 REVERT JUMPDEST POP POP POP POP PUSH1 0x40 MLOAD RETURNDATASIZE PUSH1 0x1F NOT PUSH1 0x1F DUP3 ADD AND DUP3 ADD DUP1 PUSH1 0x40 MSTORE POP DUP2 ADD SWAP1 PUSH2 0x2C7 SWAP2 SWAP1 PUSH2 0x84E JUMP JUMPDEST POP POP POP POP POP JUMP JUMPDEST PUSH1 0x1 PUSH1 0x20 MSTORE DUP1 PUSH1 0x0 MSTORE PUSH1 0x40 PUSH1 0x0 KECCAK256 PUSH1 0x0 SWAP2 POP SWAP1 POP SLOAD DUP2 JUMP JUMPDEST PUSH1 0x0 PUSH1 0x3 PUSH8 0xFFFFFFFFFFFFFFFF DUP2 GT ISZERO PUSH2 0x303 JUMPI PUSH2 0x302 PUSH2 0x6BE JUMP JUMPDEST JUMPDEST PUSH1 0x40 MLOAD SWAP1 DUP1 DUP3 MSTORE DUP1 PUSH1 0x20 MUL PUSH1 0x20 ADD DUP3 ADD PUSH1 0x40 MSTORE DUP1 ISZERO PUSH2 0x331 JUMPI DUP2 PUSH1 0x20 ADD PUSH1 0x20 DUP3 MUL DUP1 CALLDATASIZE DUP4 CALLDATACOPY DUP1 DUP3 ADD SWAP2 POP POP SWAP1 POP JUMPDEST POP SWAP1 POP PUSH1 0x0 DUP2 PUSH1 0x0 DUP2 MLOAD DUP2 LT PUSH2 0x34A JUMPI PUSH2 0x349 PUSH2 0x6ED JUMP JUMPDEST JUMPDEST PUSH1 0x20 MUL PUSH1 0x20 ADD ADD DUP2 DUP2 MSTORE POP POP DUP3 DUP2 PUSH1 0x1 DUP2 MLOAD DUP2 LT PUSH2 0x36B JUMPI PUSH2 0x36A PUSH2 0x6ED JUMP JUMPDEST JUMPDEST PUSH1 0x20 MUL PUSH1 0x20 ADD ADD DUP2 DUP2 MSTORE POP POP DUP2 DUP2 PUSH1 0x2 DUP2 MLOAD DUP2 LT PUSH2 0x38C JUMPI PUSH2 0x38B PUSH2 0x6ED JUMP JUMPDEST JUMPDEST PUSH1 0x20 MUL PUSH1 0x20 ADD ADD DUP2 DUP2 MSTORE POP POP PUSH1 0x0 DUP1 SLOAD SWAP1 PUSH2 0x100 EXP SWAP1 DIV PUSH20 0xFFFFFFFFFFFFFFFFFFFFFFFFFFFFFFFFFFFFFFFF AND PUSH20 0xFFFFFFFFFFFFFFFFFFFFFFFFFFFFFFFFFFFFFFFF AND PUSH4 0x2C9DD5C0 DUP6 DUP4 PUSH1 0x40 MLOAD DUP4 PUSH4 0xFFFFFFFF AND PUSH1 0xE0 SHL DUP2 MSTORE PUSH1 0x4 ADD PUSH2 0x3F3 SWAP3 SWAP2 SWAP1 PUSH2 0x87B JUMP JUMPDEST PUSH1 0x20 PUSH1 0x40 MLOAD DUP1 DUP4 SUB DUP2 PUSH1 0x0 DUP8 GAS CALL ISZERO DUP1 ISZERO PUSH2 0x412 JUMPI RETURNDATASIZE PUSH1 0x0 DUP1 RETURNDATACOPY RETURNDATASIZE PUSH1 0x0 REVERT JUMPDEST POP POP POP POP PUSH1 0x40 MLOAD RETURNDATASIZE PUSH1 0x1F NOT PUSH1 0x1F DUP3 ADD AND DUP3 ADD DUP1 PUSH1 0x40 MSTORE POP DUP2 ADD SWAP1 PUSH2 0x436 SWAP2 SWAP1 PUSH2 0x84E JUMP JUMPDEST POP DUP2 PUSH1 0x1 PUSH1 0x0 DUP6 DUP2 MSTORE PUSH1 0x20 ADD SWAP1 DUP2 MSTORE PUSH1 0x20 ADD PUSH1 0x0 KECCAK256 PUSH1 0x0 DUP3 DUP3 SLOAD PUSH2 0x45A SWAP2 SWAP1 PUSH2 0x8AB JUMP JUMPDEST SWAP3 POP POP DUP2 SWAP1 SSTORE POP POP POP POP POP JUMP JUMPDEST PUSH1 0x0 DUP1 REVERT JUMPDEST PUSH1 0x0 DUP2 SWAP1 POP SWAP2 SWAP1 POP JUMP JUMPDEST PUSH2 0x47F DUP2 PUSH2 0x46C JUMP JUMPDEST DUP2 EQ PUSH2 0x48A JUMPI PUSH1 0x0 DUP1 REVERT JUMPDEST POP JUMP JUMPDEST PUSH1 0x0 DUP2 CALLDATALOAD SWAP1 POP PUSH2 0x49C DUP2 PUSH2 0x476 JUMP JUMPDEST SWAP3 SWAP2 POP POP JUMP JUMPDEST PUSH1 0x0 DUP1 PUSH1 0x0 PUSH1 0x60 DUP5 DUP7 SUB SLT ISZERO PUSH2 0x4BB JUMPI PUSH2 0x4BA PUSH2 0x467 JUMP JUMPDEST JUMPDEST PUSH1 0x0 PUSH2 0x4C9 DUP7 DUP3 DUP8 ADD PUSH2 0x48D JUMP JUMPDEST SWAP4 POP POP PUSH1 0x20 PUSH2 0x4DA DUP7 DUP3 DUP8 ADD PUSH2 0x48D JUMP JUMPDEST SWAP3 POP POP PUSH1 0x40 PUSH2 0x4EB DUP7 DUP3 DUP8 ADD PUSH2 0x48D JUMP JUMPDEST SWAP2 POP POP SWAP3 POP SWAP3 POP SWAP3 JUMP JUMPDEST PUSH1 0x0 PUSH1 0x20 DUP3 DUP5 SUB SLT ISZERO PUSH2 0x50B JUMPI PUSH2 0x50A PUSH2 0x467 JUMP JUMPDEST JUMPDEST PUSH1 0x0 PUSH2 0x519 DUP5 DUP3 DUP6 ADD PUSH2 0x48D JUMP JUMPDEST SWAP2 POP POP SWAP3 SWAP2 POP POP JUMP JUMPDEST PUSH2 0x52B DUP2 PUSH2 0x46C JUMP JUMPDEST DUP3 MSTORE POP POP JUMP JUMPDEST PUSH1 0x0 PUSH1 0x20 DUP3 ADD SWAP1 POP PUSH2 0x546 PUSH1 0x0 DUP4 ADD DUP5 PUSH2 0x522 JUMP JUMPDEST SWAP3 SWAP2 POP POP JUMP JUMPDEST PUSH1 0x0 DUP3 DUP3 MSTORE PUSH1 0x20 DUP3 ADD SWAP1 POP SWAP3 SWAP2 POP POP JUMP JUMPDEST PUSH32 0x496E76616C696420616D6F756E742E0000000000000000000000000000000000 PUSH1 0x0 DUP3 ADD MSTORE POP JUMP JUMPDEST PUSH1 0x0 PUSH2 0x593 PUSH1 0xF DUP4 PUSH2 0x54C JUMP JUMPDEST SWAP2 POP PUSH2 0x59E DUP3 PUSH2 0x55D JUMP JUMPDEST PUSH1 0x20 DUP3 ADD SWAP1 POP SWAP2 SWAP1 POP JUMP JUMPDEST PUSH1 0x0 PUSH1 0x20 DUP3 ADD SWAP1 POP DUP2 DUP2 SUB PUSH1 0x0 DUP4 ADD MSTORE PUSH2 0x5C2 DUP2 PUSH2 0x586 JUMP JUMPDEST SWAP1 POP SWAP2 SWAP1 POP JUMP JUMPDEST PUSH32 0x546865207573657227732062616C616E6365206973206E6F74206C6172676520 PUSH1 0x0 DUP3 ADD MSTORE PUSH32 0x656E6F7567682E00000000000000000000000000000000000000000000000000 PUSH1 0x20 DUP3 ADD MSTORE POP JUMP JUMPDEST PUSH1 0x0 PUSH2 0x625 PUSH1 0x27 DUP4 PUSH2 0x54C JUMP JUMPDEST SWAP2 POP PUSH2 0x630 DUP3 PUSH2 0x5C9 JUMP JUMPDEST PUSH1 0x40 DUP3 ADD SWAP1 POP SWAP2 SWAP1 POP JUMP JUMPDEST PUSH1 0x0 PUSH1 0x20 DUP3 ADD SWAP1 POP DUP2 DUP2 SUB PUSH1 0x0 DUP4 ADD MSTORE PUSH2 0x654 DUP2 PUSH2 0x618 JUMP JUMPDEST SWAP1 POP SWAP2 SWAP1 POP JUMP JUMPDEST PUSH32 0x4E487B7100000000000000000000000000000000000000000000000000000000 PUSH1 0x0 MSTORE PUSH1 0x11 PUSH1 0x4 MSTORE PUSH1 0x24 PUSH1 0x0 REVERT JUMPDEST PUSH1 0x0 PUSH2 0x695 DUP3 PUSH2 0x46C JUMP JUMPDEST SWAP2 POP PUSH2 0x6A0 DUP4 PUSH2 0x46C JUMP JUMPDEST SWAP3 POP DUP3 DUP3 LT ISZERO PUSH2 0x6B3 JUMPI PUSH2 0x6B2 PUSH2 0x65B JUMP JUMPDEST JUMPDEST DUP3 DUP3 SUB SWAP1 POP SWAP3 SWAP2 POP POP JUMP JUMPDEST PUSH32 0x4E487B7100000000000000000000000000000000000000000000000000000000 PUSH1 0x0 MSTORE PUSH1 0x41 PUSH1 0x4 MSTORE PUSH1 0x24 PUSH1 0x0 REVERT JUMPDEST PUSH32 0x4E487B7100000000000000000000000000000000000000000000000000000000 PUSH1 0x0 MSTORE PUSH1 0x32 PUSH1 0x4 MSTORE PUSH1 0x24 PUSH1 0x0 REVERT JUMPDEST PUSH1 0x0 DUP2 MLOAD SWAP1 POP SWAP2 SWAP1 POP JUMP JUMPDEST PUSH1 0x0 DUP3 DUP3 MSTORE PUSH1 0x20 DUP3 ADD SWAP1 POP SWAP3 SWAP2 POP POP JUMP JUMPDEST PUSH1 0x0 DUP2 SWAP1 POP PUSH1 0x20 DUP3 ADD SWAP1 POP SWAP2 SWAP1 POP JUMP JUMPDEST PUSH2 0x751 DUP2 PUSH2 0x46C JUMP JUMPDEST DUP3 MSTORE POP POP JUMP JUMPDEST PUSH1 0x0 PUSH2 0x763 DUP4 DUP4 PUSH2 0x748 JUMP JUMPDEST PUSH1 0x20 DUP4 ADD SWAP1 POP SWAP3 SWAP2 POP POP JUMP JUMPDEST PUSH1 0x0 PUSH1 0x20 DUP3 ADD SWAP1 POP SWAP2 SWAP1 POP JUMP JUMPDEST PUSH1 0x0 PUSH2 0x787 DUP3 PUSH2 0x71C JUMP JUMPDEST PUSH2 0x791 DUP2 DUP6 PUSH2 0x727 JUMP JUMPDEST SWAP4 POP PUSH2 0x79C DUP4 PUSH2 0x738 JUMP JUMPDEST DUP1 PUSH1 0x0 JUMPDEST DUP4 DUP2 LT ISZERO PUSH2 0x7CD JUMPI DUP2 MLOAD PUSH2 0x7B4 DUP9 DUP3 PUSH2 0x757 JUMP JUMPDEST SWAP8 POP PUSH2 0x7BF DUP4 PUSH2 0x76F JUMP JUMPDEST SWAP3 POP POP PUSH1 0x1 DUP2 ADD SWAP1 POP PUSH2 0x7A0 JUMP JUMPDEST POP DUP6 SWAP4 POP POP POP POP SWAP3 SWAP2 POP POP JUMP JUMPDEST PUSH1 0x0 PUSH1 0x60 DUP3 ADD SWAP1 POP PUSH2 0x7EF PUSH1 0x0 DUP4 ADD DUP7 PUSH2 0x522 JUMP JUMPDEST PUSH2 0x7FC PUSH1 0x20 DUP4 ADD DUP6 PUSH2 0x522 JUMP JUMPDEST DUP2 DUP2 SUB PUSH1 0x40 DUP4 ADD MSTORE PUSH2 0x80E DUP2 DUP5 PUSH2 0x77C JUMP JUMPDEST SWAP1 POP SWAP5 SWAP4 POP POP POP POP JUMP JUMPDEST PUSH1 0x0 DUP2 SWAP1 POP SWAP2 SWAP1 POP JUMP JUMPDEST PUSH2 0x82B DUP2 PUSH2 0x818 JUMP JUMPDEST DUP2 EQ PUSH2 0x836 JUMPI PUSH1 0x0 DUP1 REVERT JUMPDEST POP JUMP JUMPDEST PUSH1 0x0 DUP2 MLOAD SWAP1 POP PUSH2 0x848 DUP2 PUSH2 0x822 JUMP JUMPDEST SWAP3 SWAP2 POP POP JUMP JUMPDEST PUSH1 0x0 PUSH1 0x20 DUP3 DUP5 SUB SLT ISZERO PUSH2 0x864 JUMPI PUSH2 0x863 PUSH2 0x467 JUMP JUMPDEST JUMPDEST PUSH1 0x0 PUSH2 0x872 DUP5 DUP3 DUP6 ADD PUSH2 0x839 JUMP JUMPDEST SWAP2 POP POP SWAP3 SWAP2 POP POP JUMP JUMPDEST PUSH1 0x0 PUSH1 0x40 DUP3 ADD SWAP1 POP PUSH2 0x890 PUSH1 0x0 DUP4 ADD DUP6 PUSH2 0x522 JUMP JUMPDEST DUP2 DUP2 SUB PUSH1 0x20 DUP4 ADD MSTORE PUSH2 0x8A2 DUP2 DUP5 PUSH2 0x77C JUMP JUMPDEST SWAP1 POP SWAP4 SWAP3 POP POP POP JUMP JUMPDEST PUSH1 0x0 PUSH2 0x8B6 DUP3 PUSH2 0x46C JUMP JUMPDEST SWAP2 POP PUSH2 0x8C1 DUP4 PUSH2 0x46C JUMP JUMPDEST SWAP3 POP DUP3 PUSH32 0xFFFFFFFFFFFFFFFFFFFFFFFFFFFFFFFFFFFFFFFFFFFFFFFFFFFFFFFFFFFFFFFF SUB DUP3 GT ISZERO PUSH2 0x8F6 JUMPI PUSH2 0x8F5 PUSH2 0x65B JUMP JUMPDEST JUMPDEST DUP3 DUP3 ADD SWAP1 POP SWAP3 SWAP2 POP POP JUMP INVALID LOG2 PUSH5 0x6970667358 0x22 SLT KECCAK256 DUP3 0xDF 0xDC 0x2C SUB 0x26 OR 0xD4 0xAD 0xE0 PUSH8 0xD48C18F5C95D3F46 0xFC 0xDC 0x4D CALLDATACOPY DUP9 PUSH19 0x8C71D09C6315FC64736F6C634300080A003300 "
        },
        "methodIdentifiers": {
          "deposit(uint256,uint256,uint256)": "00aeef8a",
          "userBalances(uint256)": "051475dd",
          "withdraw(uint256,uint256,uint256)": "a41fe49f"
        }
      }
    }
  }
}