{
  "_format": "hh-sol-artifact-1",
  "contractName": "Cairo",
  "sourceName": "contracts/libraries/helpers/Cairo.sol",
  "abi": [
    {
      "inputs": [],
      "name": "FIELD_PRIME",
      "outputs": [
        {
          "internalType": "uint256",
          "name": "",
          "type": "uint256"
        }
      ],
      "stateMutability": "view",
      "type": "function"
    }
  ],
  "bytecode": "0x60dc610052600b82828239805160001a607314610045577f4e487b7100000000000000000000000000000000000000000000000000000000600052600060045260246000fd5b30600052607381538281f3fe730000000000000000000000000000000000000000301460806040526004361060335760003560e01c8063a9931cf3146038575b600080fd5b603e6052565b60405160499190608d565b60405180910390f35b7f080000000000001100000000000000000000000000000000000000000000000181565b6000819050919050565b6087816076565b82525050565b600060208201905060a060008301846080565b9291505056fea264697066735822122085b144c2dc8a7dc74ecbcc4bfff1abeb5065d50b937dad49426f9c8be58c9bc164736f6c634300080a0033",
  "linkReferences": {},
  "deployedLinkReferences": {}
}