{
  "_format": "hh-sol-artifact-1",
  "contractName": "l1",
  "sourceName": "contracts/l1.sol",
  "abi": [
    {
      "inputs": [],
      "stateMutability": "nonpayable",
      "type": "constructor"
    },
    {
      "inputs": [],
      "name": "_consumeMessageFromL2",
      "outputs": [],
      "stateMutability": "nonpayable",
      "type": "function"
    },
    {
      "inputs": [],
      "name": "_sendMessageToL2",
      "outputs": [],
      "stateMutability": "nonpayable",
      "type": "function"
    },
    {
      "inputs": [],
      "name": "getBridge",
      "outputs": [
        {
          "internalType": "uint256",
          "name": "",
          "type": "uint256"
        }
      ],
      "stateMutability": "view",
      "type": "function"
    },
    {
      "inputs": [],
      "name": "getL1Handler",
      "outputs": [
        {
          "internalType": "uint256",
          "name": "",
          "type": "uint256"
        }
      ],
      "stateMutability": "view",
      "type": "function"
    },
    {
      "inputs": [],
      "name": "get_var",
      "outputs": [
        {
          "internalType": "uint256",
          "name": "",
          "type": "uint256"
        }
      ],
      "stateMutability": "view",
      "type": "function"
    },
    {
      "inputs": [],
      "name": "messagingContract",
      "outputs": [
        {
          "internalType": "contract IStarknetMessaging",
          "name": "",
          "type": "address"
        }
      ],
      "stateMutability": "view",
      "type": "function"
    },
    {
      "inputs": [
        {
          "internalType": "uint256",
          "name": "_bridge",
          "type": "uint256"
        }
      ],
      "name": "setBridge",
      "outputs": [],
      "stateMutability": "nonpayable",
      "type": "function"
    },
    {
      "inputs": [
        {
          "internalType": "uint256",
          "name": "_l1Handler",
          "type": "uint256"
        }
      ],
      "name": "setL1Handler",
      "outputs": [],
      "stateMutability": "nonpayable",
      "type": "function"
    },
    {
      "inputs": [
        {
          "internalType": "uint256",
          "name": "_value",
          "type": "uint256"
        }
      ],
      "name": "set_var",
      "outputs": [],
      "stateMutability": "nonpayable",
      "type": "function"
    }
  ],
  "bytecode": "0x608060405273de29d060d45901fb19ed6c6e959eb22d8626708e6000806101000a81548173ffffffffffffffffffffffffffffffffffffffff021916908373ffffffffffffffffffffffffffffffffffffffff16021790555060006002557f01e3cab3dcdcd6ff091e4ff64d818727fc7d1fbb567d72e172408dc3db4960b860035534801561008d57600080fd5b50600a6001819055506108f2806100a56000396000f3fe608060405234801561001057600080fd5b50600436106100935760003560e01c80638a1ac56d116100665780638a1ac56d1461010e5780638afc386f1461012a5780639aeaaefc14610134578063e8a06fb114610150578063fe960fa31461015a57610093565b80630fffbaf3146100985780631a234b8f146100b6578063401c3ab0146100d4578063755f3402146100f0575b600080fd5b6100a0610178565b6040516100ad9190610537565b60405180910390f35b6100be610182565b6040516100cb9190610537565b60405180910390f35b6100ee60048036038101906100e99190610583565b61018c565b005b6100f8610196565b604051610105919061062f565b60405180910390f35b61012860048036038101906101239190610583565b6101ba565b005b6101326101c4565b005b61014e60048036038101906101499190610583565b610351565b005b61015861035b565b005b6101626104e4565b60405161016f9190610537565b60405180910390f35b6000600254905090565b6000600354905090565b8060038190555050565b60008054906101000a900473ffffffffffffffffffffffffffffffffffffffff1681565b8060028190555050565b6000600267ffffffffffffffff8111156101e1576101e061064a565b5b60405190808252806020026020018201604052801561020f5781602001602082028036833780820191505090505b50905061021d6001546104ee565b8260008151811061023157610230610679565b5b602002602001018360018151811061024c5761024b610679565b5b602002602001018281525082815250505060008054906101000a900473ffffffffffffffffffffffffffffffffffffffff1673ffffffffffffffffffffffffffffffffffffffff16633e3aa6c5600254600354846040518463ffffffff1660e01b81526004016102be93929190610766565b6020604051808303816000875af11580156102dd573d6000803e3d6000fd5b505050506040513d601f19601f8201168201806040525081019061030191906107da565b5060808160018151811061031857610317610679565b5b60200260200101518260008151811061033457610333610679565b5b60200260200101516103469190610836565b901b60018190555050565b8060018190555050565b6000600267ffffffffffffffff8111156103785761037761064a565b5b6040519080825280602002602001820160405280156103a65781602001602082028036833780820191505090505b5090506103b46001546104ee565b826000815181106103c8576103c7610679565b5b60200260200101836001815181106103e3576103e2610679565b5b602002602001018281525082815250505060008054906101000a900473ffffffffffffffffffffffffffffffffffffffff1673ffffffffffffffffffffffffffffffffffffffff16632c9dd5c0600254836040518363ffffffff1660e01b815260040161045192919061088c565b6020604051808303816000875af1158015610470573d6000803e3d6000fd5b505050506040513d601f19601f8201168201806040525081019061049491906107da565b506080816001815181106104ab576104aa610679565b5b6020026020010151826000815181106104c7576104c6610679565b5b60200260200101516104d99190610836565b901b60018190555050565b6000600154905090565b60008060006fffffffffffffffffffffffffffffffff841690506000608085901c90508181935093505050915091565b6000819050919050565b6105318161051e565b82525050565b600060208201905061054c6000830184610528565b92915050565b600080fd5b6105608161051e565b811461056b57600080fd5b50565b60008135905061057d81610557565b92915050565b60006020828403121561059957610598610552565b5b60006105a78482850161056e565b91505092915050565b600073ffffffffffffffffffffffffffffffffffffffff82169050919050565b6000819050919050565b60006105f56105f06105eb846105b0565b6105d0565b6105b0565b9050919050565b6000610607826105da565b9050919050565b6000610619826105fc565b9050919050565b6106298161060e565b82525050565b60006020820190506106446000830184610620565b92915050565b7f4e487b7100000000000000000000000000000000000000000000000000000000600052604160045260246000fd5b7f4e487b7100000000000000000000000000000000000000000000000000000000600052603260045260246000fd5b600081519050919050565b600082825260208201905092915050565b6000819050602082019050919050565b6106dd8161051e565b82525050565b60006106ef83836106d4565b60208301905092915050565b6000602082019050919050565b6000610713826106a8565b61071d81856106b3565b9350610728836106c4565b8060005b8381101561075957815161074088826106e3565b975061074b836106fb565b92505060018101905061072c565b5085935050505092915050565b600060608201905061077b6000830186610528565b6107886020830185610528565b818103604083015261079a8184610708565b9050949350505050565b6000819050919050565b6107b7816107a4565b81146107c257600080fd5b50565b6000815190506107d4816107ae565b92915050565b6000602082840312156107f0576107ef610552565b5b60006107fe848285016107c5565b91505092915050565b7f4e487b7100000000000000000000000000000000000000000000000000000000600052601160045260246000fd5b60006108418261051e565b915061084c8361051e565b9250827fffffffffffffffffffffffffffffffffffffffffffffffffffffffffffffffff0382111561088157610880610807565b5b828201905092915050565b60006040820190506108a16000830185610528565b81810360208301526108b38184610708565b9050939250505056fea26469706673582212209f40d9cf3879576a0f3371bb492f50b0a77ea511286dc3ddc2e195744a2ff8fe64736f6c634300080a0033",
  "linkReferences": {},
  "deployedLinkReferences": {}
}