{
  "_format": "hh-sol-artifact-1",
  "contractName": "l1",
  "sourceName": "contracts/l1.sol",
  "abi": [
    {
      "inputs": [
        {
          "internalType": "contract IStarknetCore",
          "name": "starknetCore_",
          "type": "address"
        }
      ],
      "stateMutability": "nonpayable",
      "type": "constructor"
    },
    {
      "inputs": [
        {
          "internalType": "uint256",
          "name": "l2ContractAddress",
          "type": "uint256"
        },
        {
          "internalType": "uint256",
          "name": "user",
          "type": "uint256"
        },
        {
          "internalType": "uint256",
          "name": "amount",
          "type": "uint256"
        }
      ],
      "name": "deposit",
      "outputs": [],
      "stateMutability": "nonpayable",
      "type": "function"
    },
    {
      "inputs": [
        {
          "internalType": "uint256",
          "name": "",
          "type": "uint256"
        }
      ],
      "name": "userBalances",
      "outputs": [
        {
          "internalType": "uint256",
          "name": "",
          "type": "uint256"
        }
      ],
      "stateMutability": "view",
      "type": "function"
    },
    {
      "inputs": [
        {
          "internalType": "uint256",
          "name": "l2ContractAddress",
          "type": "uint256"
        },
        {
          "internalType": "uint256",
          "name": "user",
          "type": "uint256"
        },
        {
          "internalType": "uint256",
          "name": "amount",
          "type": "uint256"
        }
      ],
      "name": "withdraw",
      "outputs": [],
      "stateMutability": "nonpayable",
      "type": "function"
    }
  ],
  "bytecode": "0x608060405234801561001057600080fd5b50604051610a60380380610a60833981810160405281019061003291906100ed565b806000806101000a81548173ffffffffffffffffffffffffffffffffffffffff021916908373ffffffffffffffffffffffffffffffffffffffff1602179055505061011a565b600080fd5b600073ffffffffffffffffffffffffffffffffffffffff82169050919050565b60006100a88261007d565b9050919050565b60006100ba8261009d565b9050919050565b6100ca816100af565b81146100d557600080fd5b50565b6000815190506100e7816100c1565b92915050565b60006020828403121561010357610102610078565b5b6000610111848285016100d8565b91505092915050565b610937806101296000396000f3fe608060405234801561001057600080fd5b50600436106100405760003560e01c8062aeef8a14610045578063051475dd14610061578063a41fe49f14610091575b600080fd5b61005f600480360381019061005a91906104a2565b6100ad565b005b61007b600480360381019061007691906104f5565b6102ce565b6040516100889190610531565b60405180910390f35b6100ab60048036038101906100a691906104a2565b6102e6565b005b6801000000000000000081106100f8576040517f08c379a00000000000000000000000000000000000000000000000000000000081526004016100ef906105a9565b60405180910390fd5b600160008381526020019081526020016000205481111561014e576040517f08c379a00000000000000000000000000000000000000000000000000000000081526004016101459061063b565b60405180910390fd5b80600160008481526020019081526020016000206000828254610171919061068a565b925050819055506000600267ffffffffffffffff811115610195576101946106be565b5b6040519080825280602002602001820160405280156101c35781602001602082028036833780820191505090505b50905082816000815181106101db576101da6106ed565b5b60200260200101818152505081816001815181106101fc576101fb6106ed565b5b60200260200101818152505060008054906101000a900473ffffffffffffffffffffffffffffffffffffffff1673ffffffffffffffffffffffffffffffffffffffff16633e3aa6c5857ec73f681176fc7b3f9693986fd7b14581e8d540519e27400e88b8713932be01846040518463ffffffff1660e01b8152600401610284939291906107da565b6020604051808303816000875af11580156102a3573d6000803e3d6000fd5b505050506040513d601f19601f820116820180604052508101906102c7919061084e565b5050505050565b60016020528060005260406000206000915090505481565b6000600367ffffffffffffffff811115610303576103026106be565b5b6040519080825280602002602001820160405280156103315781602001602082028036833780820191505090505b50905060008160008151811061034a576103496106ed565b5b602002602001018181525050828160018151811061036b5761036a6106ed565b5b602002602001018181525050818160028151811061038c5761038b6106ed565b5b60200260200101818152505060008054906101000a900473ffffffffffffffffffffffffffffffffffffffff1673ffffffffffffffffffffffffffffffffffffffff16632c9dd5c085836040518363ffffffff1660e01b81526004016103f392919061087b565b6020604051808303816000875af1158015610412573d6000803e3d6000fd5b505050506040513d601f19601f82011682018060405250810190610436919061084e565b508160016000858152602001908152602001600020600082825461045a91906108ab565b9250508190555050505050565b600080fd5b6000819050919050565b61047f8161046c565b811461048a57600080fd5b50565b60008135905061049c81610476565b92915050565b6000806000606084860312156104bb576104ba610467565b5b60006104c98682870161048d565b93505060206104da8682870161048d565b92505060406104eb8682870161048d565b9150509250925092565b60006020828403121561050b5761050a610467565b5b60006105198482850161048d565b91505092915050565b61052b8161046c565b82525050565b60006020820190506105466000830184610522565b92915050565b600082825260208201905092915050565b7f496e76616c696420616d6f756e742e0000000000000000000000000000000000600082015250565b6000610593600f8361054c565b915061059e8261055d565b602082019050919050565b600060208201905081810360008301526105c281610586565b9050919050565b7f546865207573657227732062616c616e6365206973206e6f74206c617267652060008201527f656e6f7567682e00000000000000000000000000000000000000000000000000602082015250565b600061062560278361054c565b9150610630826105c9565b604082019050919050565b6000602082019050818103600083015261065481610618565b9050919050565b7f4e487b7100000000000000000000000000000000000000000000000000000000600052601160045260246000fd5b60006106958261046c565b91506106a08361046c565b9250828210156106b3576106b261065b565b5b828203905092915050565b7f4e487b7100000000000000000000000000000000000000000000000000000000600052604160045260246000fd5b7f4e487b7100000000000000000000000000000000000000000000000000000000600052603260045260246000fd5b600081519050919050565b600082825260208201905092915050565b6000819050602082019050919050565b6107518161046c565b82525050565b60006107638383610748565b60208301905092915050565b6000602082019050919050565b60006107878261071c565b6107918185610727565b935061079c83610738565b8060005b838110156107cd5781516107b48882610757565b97506107bf8361076f565b9250506001810190506107a0565b5085935050505092915050565b60006060820190506107ef6000830186610522565b6107fc6020830185610522565b818103604083015261080e818461077c565b9050949350505050565b6000819050919050565b61082b81610818565b811461083657600080fd5b50565b60008151905061084881610822565b92915050565b60006020828403121561086457610863610467565b5b600061087284828501610839565b91505092915050565b60006040820190506108906000830185610522565b81810360208301526108a2818461077c565b90509392505050565b60006108b68261046c565b91506108c18361046c565b9250827fffffffffffffffffffffffffffffffffffffffffffffffffffffffffffffffff038211156108f6576108f561065b565b5b82820190509291505056fea264697066735822122082dfdc2c032617d4ade067d48c18f5c95d3f46fcdc4d3788728c71d09c6315fc64736f6c634300080a0033",
  "linkReferences": {},
  "deployedLinkReferences": {}
}