{
  "_format": "hh-sol-artifact-1",
  "contractName": "l1",
  "sourceName": "contracts/l1.sol",
  "abi": [
    {
      "inputs": [],
      "stateMutability": "nonpayable",
      "type": "constructor"
    },
    {
      "inputs": [],
      "name": "bridge",
      "outputs": [
        {
          "internalType": "uint256",
          "name": "",
          "type": "uint256"
        }
      ],
      "stateMutability": "view",
      "type": "function"
    },
    {
      "inputs": [],
      "name": "get",
      "outputs": [
        {
          "internalType": "uint256",
          "name": "",
          "type": "uint256"
        }
      ],
      "stateMutability": "view",
      "type": "function"
    },
    {
      "inputs": [],
      "name": "messagingContract",
      "outputs": [
        {
          "internalType": "contract IStarknetMessaging",
          "name": "",
          "type": "address"
        }
      ],
      "stateMutability": "view",
      "type": "function"
    },
    {
      "inputs": [
        {
          "internalType": "uint256",
          "name": "_value",
          "type": "uint256"
        }
      ],
      "name": "set",
      "outputs": [],
      "stateMutability": "nonpayable",
      "type": "function"
    },
    {
      "inputs": [
        {
          "internalType": "uint256",
          "name": "_bridge",
          "type": "uint256"
        }
      ],
      "name": "setBridge",
      "outputs": [],
      "stateMutability": "nonpayable",
      "type": "function"
    }
  ],
  "bytecode": "0x608060405273de29d060d45901fb19ed6c6e959eb22d8626708e600160006101000a81548173ffffffffffffffffffffffffffffffffffffffff021916908373ffffffffffffffffffffffffffffffffffffffff16021790555034801561006557600080fd5b50600a6000819055506105ef8061007d6000396000f3fe608060405234801561001057600080fd5b50600436106100575760003560e01c806360fe47b11461005c5780636d4ce63c14610078578063755f3402146100965780638a1ac56d146100b4578063e78cea92146100d0575b600080fd5b6100766004803603810190610071919061030b565b6100ee565b005b610080610101565b60405161008d9190610347565b60405180910390f35b61009e61010a565b6040516100ab91906103e1565b60405180910390f35b6100ce60048036038101906100c9919061030b565b610130565b005b6100d861013a565b6040516100e59190610347565b60405180910390f35b806000819055506100fe81610140565b50565b60008054905090565b600160009054906101000a900473ffffffffffffffffffffffffffffffffffffffff1681565b8060028190555050565b60025481565b6000600267ffffffffffffffff81111561015d5761015c6103fc565b5b60405190808252806020026020018201604052801561018b5781602001602082028036833780820191505090505b509050610197826102a0565b826000815181106101ab576101aa61042b565b5b60200260200101836001815181106101c6576101c561042b565b5b6020026020010182815250828152505050600160009054906101000a900473ffffffffffffffffffffffffffffffffffffffff1673ffffffffffffffffffffffffffffffffffffffff16633e3aa6c56002547f02d757788a8d8d6f21d1cd40bce38a8222d70654214e96ff95d8086e684fbee5846040518463ffffffff1660e01b815260040161025893929190610518565b6020604051808303816000875af1158015610277573d6000803e3d6000fd5b505050506040513d601f19601f8201168201806040525081019061029b919061058c565b505050565b60008060006fffffffffffffffffffffffffffffffff841690506000608085901c90508181935093505050915091565b600080fd5b6000819050919050565b6102e8816102d5565b81146102f357600080fd5b50565b600081359050610305816102df565b92915050565b600060208284031215610321576103206102d0565b5b600061032f848285016102f6565b91505092915050565b610341816102d5565b82525050565b600060208201905061035c6000830184610338565b92915050565b600073ffffffffffffffffffffffffffffffffffffffff82169050919050565b6000819050919050565b60006103a76103a261039d84610362565b610382565b610362565b9050919050565b60006103b98261038c565b9050919050565b60006103cb826103ae565b9050919050565b6103db816103c0565b82525050565b60006020820190506103f660008301846103d2565b92915050565b7f4e487b7100000000000000000000000000000000000000000000000000000000600052604160045260246000fd5b7f4e487b7100000000000000000000000000000000000000000000000000000000600052603260045260246000fd5b600081519050919050565b600082825260208201905092915050565b6000819050602082019050919050565b61048f816102d5565b82525050565b60006104a18383610486565b60208301905092915050565b6000602082019050919050565b60006104c58261045a565b6104cf8185610465565b93506104da83610476565b8060005b8381101561050b5781516104f28882610495565b97506104fd836104ad565b9250506001810190506104de565b5085935050505092915050565b600060608201905061052d6000830186610338565b61053a6020830185610338565b818103604083015261054c81846104ba565b9050949350505050565b6000819050919050565b61056981610556565b811461057457600080fd5b50565b60008151905061058681610560565b92915050565b6000602082840312156105a2576105a16102d0565b5b60006105b084828501610577565b9150509291505056fea2646970667358221220a87fd58dfbff3d905826cc2db1771848e789532eb24b21a9a53634d1f965b45c64736f6c634300080a0033",
  "linkReferences": {},
  "deployedLinkReferences": {}
}